{
  "contractName": "Bet",
  "abi": [
    {
      "inputs": [],
      "stateMutability": "nonpayable",
      "type": "constructor"
    },
    {
      "anonymous": false,
      "inputs": [
        {
          "indexed": false,
          "internalType": "string",
          "name": "nextTournament",
          "type": "string"
        }
      ],
      "name": "AnnounceNextTournament",
      "type": "event"
    },
    {
      "anonymous": false,
      "inputs": [
        {
          "indexed": false,
          "internalType": "string",
          "name": "correctAnswer",
          "type": "string"
        }
      ],
      "name": "AnswerIsCorrect",
      "type": "event"
    },
    {
      "anonymous": false,
      "inputs": [
        {
          "indexed": false,
          "internalType": "string",
          "name": "incorrectAnswer",
          "type": "string"
        }
      ],
      "name": "AnswerIsNotCorrect",
      "type": "event"
    },
    {
      "anonymous": false,
      "inputs": [
        {
          "indexed": false,
          "internalType": "uint256",
          "name": "numberOfWinners",
          "type": "uint256"
        }
      ],
      "name": "AtLeastOneWinner",
      "type": "event"
    },
    {
      "anonymous": false,
      "inputs": [
        {
          "indexed": false,
          "internalType": "string",
          "name": "noMore",
          "type": "string"
        }
      ],
      "name": "NoMoreTournaments",
      "type": "event"
    },
    {
      "anonymous": false,
      "inputs": [
        {
          "indexed": false,
          "internalType": "uint256",
          "name": "noWinners",
          "type": "uint256"
        }
      ],
      "name": "NoWinners",
      "type": "event"
    },
    {
      "anonymous": false,
      "inputs": [
        {
          "indexed": false,
          "internalType": "address",
          "name": "player",
          "type": "address"
        }
      ],
      "name": "PlayerAnswered",
      "type": "event"
    },
    {
      "inputs": [
        {
          "internalType": "uint256",
          "name": "",
          "type": "uint256"
        }
      ],
      "name": "tournaments",
      "outputs": [
        {
          "internalType": "uint256",
          "name": "maxPlayers",
          "type": "uint256"
        },
        {
          "internalType": "uint256",
          "name": "minBet",
          "type": "uint256"
        },
        {
          "internalType": "uint256",
          "name": "bank",
          "type": "uint256"
        },
        {
          "internalType": "string",
          "name": "name",
          "type": "string"
        },
        {
          "internalType": "string",
          "name": "correctResult",
          "type": "string"
        },
        {
          "internalType": "bool",
          "name": "done",
          "type": "bool"
        },
        {
          "internalType": "string",
          "name": "a",
          "type": "string"
        },
        {
          "internalType": "string",
          "name": "b",
          "type": "string"
        }
      ],
      "stateMutability": "view",
      "type": "function",
      "constant": true
    },
    {
      "inputs": [],
      "name": "getTournamentsCount",
      "outputs": [
        {
          "internalType": "uint256",
          "name": "",
          "type": "uint256"
        }
      ],
      "stateMutability": "view",
      "type": "function",
      "constant": true
    },
    {
      "inputs": [],
      "name": "getCurrentTournamentIndex",
      "outputs": [
        {
          "internalType": "uint256",
          "name": "",
          "type": "uint256"
        }
      ],
      "stateMutability": "view",
      "type": "function",
      "constant": true
    },
    {
      "inputs": [
        {
          "internalType": "uint256",
          "name": "index",
          "type": "uint256"
        }
      ],
      "name": "getCurrentTournament",
      "outputs": [
        {
          "internalType": "uint256",
          "name": "_minBet",
          "type": "uint256"
        },
        {
          "internalType": "string",
          "name": "_name",
          "type": "string"
        },
        {
          "internalType": "uint256",
          "name": "max_players",
          "type": "uint256"
        },
        {
          "internalType": "string",
          "name": "_answer",
          "type": "string"
        },
        {
          "internalType": "string",
          "name": "a",
          "type": "string"
        },
        {
          "internalType": "string",
          "name": "b",
          "type": "string"
        },
        {
          "internalType": "bool",
          "name": "status",
          "type": "bool"
        }
      ],
      "stateMutability": "view",
      "type": "function",
      "constant": true
    },
    {
      "inputs": [],
      "name": "getWinners",
      "outputs": [
        {
          "internalType": "address payable[]",
          "name": "",
          "type": "address[]"
        }
      ],
      "stateMutability": "view",
      "type": "function",
      "constant": true
    },
    {
      "inputs": [],
      "name": "getTournamentsLeft",
      "outputs": [
        {
          "internalType": "bool",
          "name": "",
          "type": "bool"
        }
      ],
      "stateMutability": "view",
      "type": "function",
      "constant": true
    },
    {
      "inputs": [],
      "name": "concludeTournament",
      "outputs": [],
      "stateMutability": "nonpayable",
      "type": "function"
    },
    {
      "inputs": [
        {
          "internalType": "string",
          "name": "_choice",
          "type": "string"
        }
      ],
      "name": "participateInTourney",
      "outputs": [],
      "stateMutability": "payable",
      "type": "function",
      "payable": true
    }
  ],
  "bytecode": "0x608060405260006001553480156200001657600080fd5b50620000e76005604051806060016040528060278152602001620022e26027913960026040518060400160405280600681526020017f49737572757300000000000000000000000000000000000000000000000000008152506040518060400160405280600681526020017f49737572757300000000000000000000000000000000000000000000000000008152506040518060400160405280600481526020017f4c6f746f00000000000000000000000000000000000000000000000000000000815250620004fd60201b60201c565b620001b760056040518060600160405280602181526020016200229a6021913960026040518060400160405280600481526020017f53544d4e000000000000000000000000000000000000000000000000000000008152506040518060400160405280600481526020017f53544d4e000000000000000000000000000000000000000000000000000000008152506040518060400160405280600481526020017f4c6f746f00000000000000000000000000000000000000000000000000000000815250620004fd60201b60201c565b620002876005604051806060016040528060238152602001620023096023913960026040518060400160405280600281526020017f397a0000000000000000000000000000000000000000000000000000000000008152506040518060400160405280600281526020017f397a0000000000000000000000000000000000000000000000000000000000008152506040518060400160405280600481526020017f53544d4e00000000000000000000000000000000000000000000000000000000815250620004fd60201b60201c565b620003576005604051806060016040528060218152602001620022796021913960026040518060400160405280600281526020017f397a0000000000000000000000000000000000000000000000000000000000008152506040518060400160405280600681526020017f49737572757300000000000000000000000000000000000000000000000000008152506040518060400160405280600281526020017f397a000000000000000000000000000000000000000000000000000000000000815250620004fd60201b60201c565b620004276005604051806060016040528060278152602001620022bb6027913960026040518060400160405280600481526020017f50414354000000000000000000000000000000000000000000000000000000008152506040518060400160405280600481526020017f50414354000000000000000000000000000000000000000000000000000000008152506040518060400160405280601081526020017f547572c3b377205a676f727a656c656300000000000000000000000000000000815250620004fd60201b60201c565b620004f760056040518060600160405280603381526020016200232c6033913960026040518060400160405280600a81526020017f424453204573706f7274000000000000000000000000000000000000000000008152506040518060400160405280600a81526020017f424453204573706f7274000000000000000000000000000000000000000000008152506040518060400160405280600a81526020017f5669727475732e70726f00000000000000000000000000000000000000000000815250620004fd60201b60201c565b62000700565b6000600181600181540180825580915050039060005260206000209050506000600160008054905003905086600082815481106200053757fe5b90600052602060002090600c02016001018190555085600082815481106200055b57fe5b90600052602060002090600c020160030190805190602001906200058192919062000651565b5083600082815481106200059157fe5b90600052602060002090600c02016004019080519060200190620005b792919062000651565b508460008281548110620005c757fe5b90600052602060002090600c0201600001819055508260008281548110620005eb57fe5b90600052602060002090600c020160060190805190602001906200061192919062000651565b5081600082815481106200062157fe5b90600052602060002090600c020160070190805190602001906200064792919062000651565b5050505050505050565b828054600181600116156101000203166002900490600052602060002090601f016020900481019282601f106200069457805160ff1916838001178555620006c5565b82800160010185558215620006c5579182015b82811115620006c4578251825591602001919060010190620006a7565b5b509050620006d49190620006d8565b5090565b620006fd91905b80821115620006f9576000816000905550600101620006df565b5090565b90565b611b6980620007106000396000f3fe60806040526004361061007b5760003560e01c80637503e1b71161004e5780637503e1b71461038e57806394385af1146105a6578063bfb22368146105d5578063df15c37e146106005761007b565b80632d5602da1461008057806332e19eaf146100ab57806355ed13a2146101665780636643f3261461017d575b600080fd5b34801561008c57600080fd5b5061009561066c565b6040518082815260200191505060405180910390f35b610164600480360360208110156100c157600080fd5b81019080803590602001906401000000008111156100de57600080fd5b8201836020820111156100f057600080fd5b8035906020019184600183028401116401000000008311171561011257600080fd5b91908080601f016020809104026020016040519081016040528093929190818152602001838380828437600081840152601f19601f820116905080830192505050505050509192919290505050610678565b005b34801561017257600080fd5b5061017b610ca0565b005b34801561018957600080fd5b506101b6600480360360208110156101a057600080fd5b8101908080359060200190929190505050611207565b60405180888152602001806020018781526020018060200180602001806020018615151515815260200185810385528b818151815260200191508051906020019080838360005b838110156102185780820151818401526020810190506101fd565b50505050905090810190601f1680156102455780820380516001836020036101000a031916815260200191505b50858103845289818151815260200191508051906020019080838360005b8381101561027e578082015181840152602081019050610263565b50505050905090810190601f1680156102ab5780820380516001836020036101000a031916815260200191505b50858103835288818151815260200191508051906020019080838360005b838110156102e45780820151818401526020810190506102c9565b50505050905090810190601f1680156103115780820380516001836020036101000a031916815260200191505b50858103825287818151815260200191508051906020019080838360005b8381101561034a57808201518184015260208101905061032f565b50505050905090810190601f1680156103775780820380516001836020036101000a031916815260200191505b509b50505050505050505050505060405180910390f35b34801561039a57600080fd5b506103c7600480360360208110156103b157600080fd5b810190808035906020019092919050505061157e565b60405180898152602001888152602001878152602001806020018060200186151515158152602001806020018060200185810385528a818151815260200191508051906020019080838360005b8381101561042f578082015181840152602081019050610414565b50505050905090810190601f16801561045c5780820380516001836020036101000a031916815260200191505b50858103845289818151815260200191508051906020019080838360005b8381101561049557808201518184015260208101905061047a565b50505050905090810190601f1680156104c25780820380516001836020036101000a031916815260200191505b50858103835287818151815260200191508051906020019080838360005b838110156104fb5780820151818401526020810190506104e0565b50505050905090810190601f1680156105285780820380516001836020036101000a031916815260200191505b50858103825286818151815260200191508051906020019080838360005b83811015610561578082015181840152602081019050610546565b50505050905090810190601f16801561058e5780820380516001836020036101000a031916815260200191505b509c5050505050505050505050505060405180910390f35b3480156105b257600080fd5b506105bb611840565b604051808215151515815260200191505060405180910390f35b3480156105e157600080fd5b506105ea611853565b6040518082815260200191505060405180910390f35b34801561060c57600080fd5b5061061561185d565b6040518080602001828103825283818151815260200191508051906020019060200280838360005b8381101561065857808201518184015260208101905061063d565b505050509050019250505060405180910390f35b60008080549050905090565b60006001548154811061068757fe5b90600052602060002090600c02016001015434146106f0576040517f08c379a0000000000000000000000000000000000000000000000000000000008152600401808060200182810382526023815260200180611a9e6023913960400191505060405180910390fd5b6000600154815481106106ff57fe5b90600052602060002090600c0201600b0160003373ffffffffffffffffffffffffffffffffffffffff1673ffffffffffffffffffffffffffffffffffffffff16815260200190815260200160002060009054906101000a900460ff16156107ce576040517f08c379a000000000000000000000000000000000000000000000000000000000815260040180806020018281038252601c8152602001807f596f752061726520616c7265616479207061727469636970617465640000000081525060200191505060405180910390fd5b806000600154815481106107de57fe5b90600052602060002090600c0201600a0160003373ffffffffffffffffffffffffffffffffffffffff1673ffffffffffffffffffffffffffffffffffffffff168152602001908152602001600020908051906020019061083f9291906119f8565b503460006001548154811061085057fe5b90600052602060002090600c020160020160008282540192505081905550600160006001548154811061087f57fe5b90600052602060002090600c0201600b0160003373ffffffffffffffffffffffffffffffffffffffff1673ffffffffffffffffffffffffffffffffffffffff16815260200190815260200160002060006101000a81548160ff0219169083151502179055506000600154815481106108f357fe5b90600052602060002090600c0201600901339080600181540180825580915050600190039060005260206000200160009091909190916101000a81548173ffffffffffffffffffffffffffffffffffffffff021916908373ffffffffffffffffffffffffffffffffffffffff160217905550610a278160006001548154811061097857fe5b90600052602060002090600c02016004018054600181600116156101000203166002900480601f016020809104026020016040519081016040528092919081815260200182805460018160011615610100020316600290048015610a1d5780601f106109f257610100808354040283529160200191610a1d565b820191906000526020600020905b815481529060010190602001808311610a0057829003601f168201915b5050505050611909565b15610b7d577fc21a93e7a2786611c36abf214ab3557979fce850e9fab12e4dac517a08e624c633604051808273ffffffffffffffffffffffffffffffffffffffff1673ffffffffffffffffffffffffffffffffffffffff16815260200191505060405180910390a17f0592770ea893aec159632af185b1a43488d311057c6070e6c1df0ddb88abf11c60405180806020018281038252600f8152602001807f5468617420697320636f7272656374000000000000000000000000000000000081525060200191505060405180910390a1600060015481548110610b0657fe5b90600052602060002090600c0201600801339080600181540180825580915050600190039060005260206000200160009091909190916101000a81548173ffffffffffffffffffffffffffffffffffffffff021916908373ffffffffffffffffffffffffffffffffffffffff160217905550610c49565b7fc21a93e7a2786611c36abf214ab3557979fce850e9fab12e4dac517a08e624c633604051808273ffffffffffffffffffffffffffffffffffffffff1673ffffffffffffffffffffffffffffffffffffffff16815260200191505060405180910390a17fd18997b67c5e329984ddfad026e57e2b376e0db467a694c908d1ede5c3469dfa6040518080602001828103825260188152602001807f496e636f7265637420616e7377657220697320676976656e000000000000000081525060200191505060405180910390a15b600060015481548110610c5857fe5b90600052602060002090600c020160000154600060015481548110610c7957fe5b90600052602060002090600c0201600901805490501415610c9d57610c9c610ca0565b5b50565b600060015481548110610caf57fe5b90600052602060002090600c020160050160009054906101000a900460ff1615610d24576040517f08c379a0000000000000000000000000000000000000000000000000000000008152600401808060200182810382526028815260200180611ac16028913960400191505060405180910390fd5b600060015481548110610d3357fe5b90600052602060002090600c020160090180549050600060015481548110610d5757fe5b90600052602060002090600c02016000015414610ddc576040517f08c379a000000000000000000000000000000000000000000000000000000000815260040180806020018281038252600d8152602001807f5374696c6c20706c6179696e670000000000000000000000000000000000000081525060200191505060405180910390fd5b60008060015481548110610dec57fe5b90600052602060002090600c0201600801805490501115610f92577f17663ba21f5c9bc20a0c7eff75f5d1f45f6d33812aff5f2e62c5d727b465ae8c600060015481548110610e3757fe5b90600052602060002090600c0201600801805490506040518082815260200191505060405180910390a160008060015481548110610e7157fe5b90600052602060002090600c020160080180549050600060015481548110610e9557fe5b90600052602060002090600c02016002015481610eae57fe5b04905060008090505b600060015481548110610ec657fe5b90600052602060002090600c020160080180549050811015610f8b57600060015481548110610ef157fe5b90600052602060002090600c02016008018181548110610f0d57fe5b9060005260206000200160009054906101000a900473ffffffffffffffffffffffffffffffffffffffff1673ffffffffffffffffffffffffffffffffffffffff166108fc839081150290604051600060405180830381858888f19350505050158015610f7d573d6000803e3d6000fd5b508080600101915050610eb7565b50506110f8565b7f4ec06e84844904d5fbc28e73511be46bf9704fbe5c40d30de3583677c5814aac6001546040518082815260200191505060405180910390a160008060015481548110610fdb57fe5b90600052602060002090600c020160090180549050600060015481548110610fff57fe5b90600052602060002090600c0201600201548161101857fe5b04905060008090505b60006001548154811061103057fe5b90600052602060002090600c0201600901805490508110156110f55760006001548154811061105b57fe5b90600052602060002090600c0201600901818154811061107757fe5b9060005260206000200160009054906101000a900473ffffffffffffffffffffffffffffffffffffffff1673ffffffffffffffffffffffffffffffffffffffff166108fc839081150290604051600060405180830381858888f193505050501580156110e7573d6000803e3d6000fd5b508080600101915050611021565b50505b600160006001548154811061110957fe5b90600052602060002090600c020160050160006101000a81548160ff021916908315150217905550600180600082825401925050819055506005600154141561119c577f3aedffd46c4e6fe3e5564e94cc3d98a5860d45fa685aab97939b241a1ffefca660405180806020018281038252604b815260200180611ae9604b913960600191505060405180910390a1611205565b7fdb5f40b6b39f2f3f61a1b0c5e43e9b643762755e05cdefdd2724ac6983fa88c460405180806020018281038252601e8152602001807f47657420726561647920666f722061206e657720746f75726e616d656e74000081525060200191505060405180910390a15b565b6000606060006060806060600080888154811061122057fe5b90600052602060002090600c0201600101546000898154811061123f57fe5b90600052602060002090600c020160030160008a8154811061125d57fe5b90600052602060002090600c02016000015460008b8154811061127c57fe5b90600052602060002090600c020160040160008c8154811061129a57fe5b90600052602060002090600c020160060160008d815481106112b857fe5b90600052602060002090600c020160070160008e815481106112d657fe5b90600052602060002090600c020160050160009054906101000a900460ff16858054600181600116156101000203166002900480601f01602080910402602001604051908101604052809291908181526020018280546001816001161561010002031660029004801561138a5780601f1061135f5761010080835404028352916020019161138a565b820191906000526020600020905b81548152906001019060200180831161136d57829003601f168201915b50505050509550838054600181600116156101000203166002900480601f0160208091040260200160405190810160405280929190818152602001828054600181600116156101000203166002900480156114265780601f106113fb57610100808354040283529160200191611426565b820191906000526020600020905b81548152906001019060200180831161140957829003601f168201915b50505050509350828054600181600116156101000203166002900480601f0160208091040260200160405190810160405280929190818152602001828054600181600116156101000203166002900480156114c25780601f10611497576101008083540402835291602001916114c2565b820191906000526020600020905b8154815290600101906020018083116114a557829003601f168201915b50505050509250818054600181600116156101000203166002900480601f01602080910402602001604051908101604052809291908181526020018280546001816001161561010002031660029004801561155e5780601f106115335761010080835404028352916020019161155e565b820191906000526020600020905b81548152906001019060200180831161154157829003601f168201915b505050505091509650965096509650965096509650919395979092949650565b6000818154811061158b57fe5b90600052602060002090600c0201600091509050806000015490806001015490806002015490806003018054600181600116156101000203166002900480601f0160208091040260200160405190810160405280929190818152602001828054600181600116156101000203166002900480156116495780601f1061161e57610100808354040283529160200191611649565b820191906000526020600020905b81548152906001019060200180831161162c57829003601f168201915b505050505090806004018054600181600116156101000203166002900480601f0160208091040260200160405190810160405280929190818152602001828054600181600116156101000203166002900480156116e75780601f106116bc576101008083540402835291602001916116e7565b820191906000526020600020905b8154815290600101906020018083116116ca57829003601f168201915b5050505050908060050160009054906101000a900460ff1690806006018054600181600116156101000203166002900480601f0160208091040260200160405190810160405280929190818152602001828054600181600116156101000203166002900480156117985780601f1061176d57610100808354040283529160200191611798565b820191906000526020600020905b81548152906001019060200180831161177b57829003601f168201915b505050505090806007018054600181600116156101000203166002900480601f0160208091040260200160405190810160405280929190818152602001828054600181600116156101000203166002900480156118365780601f1061180b57610100808354040283529160200191611836565b820191906000526020600020905b81548152906001019060200180831161181957829003601f168201915b5050505050905088565b6000600180546000805490500314905090565b6000600154905090565b606060006001548154811061186e57fe5b90600052602060002090600c02016008018054806020026020016040519081016040528092919081815260200182805480156118ff57602002820191906000526020600020905b8160009054906101000a900473ffffffffffffffffffffffffffffffffffffffff1673ffffffffffffffffffffffffffffffffffffffff16815260200190600101908083116118b5575b5050505050905090565b6000816040516020018082805190602001908083835b60208310611942578051825260208201915060208101905060208303925061191f565b6001836020036101000a03801982511681845116808217855250505050505090500191505060405160208183030381529060405280519060200120836040516020018082805190602001908083835b602083106119b45780518252602082019150602081019050602083039250611991565b6001836020036101000a0380198251168184511680821785525050505050509050019150506040516020818303038152906040528051906020012014905092915050565b828054600181600116156101000203166002900490600052602060002090601f016020900481019282601f10611a3957805160ff1916838001178555611a67565b82800160010185558215611a67579182015b82811115611a66578251825591602001919060010190611a4b565b5b509050611a749190611a78565b5090565b611a9a91905b80821115611a96576000816000905550600101611a7e565b5090565b9056fe546865206d696e696d756d2062657420697320626967676572207468616e2074686174546f75726e616d656e7420697320616c726561647920686173206265656e20636f6e636c75646564546869732077617320746865206c61737420746f75726e616d656e742c205468616e6b20796f7520666f722070617274696369706174696e672e20436865636b206261636b206c61746572a2646970667358221220f9ca0441abcecd25d8e5ae0d1a6ed2efd67b06ba9a7b220c7a420f3b67706b8d64736f6c63430006060033557070657220627261636b65742066696e616c3a20397a207673204973757275734c6f77657220627261636b65742066696e616c3a2053544d4e207673204c6f746f4c6f77657220526f756e6420313a205041435420767320547572c3b377205a676f727a656c6563557070657220627261636b65742073656d6966696e616c3a20497375727573207673204c6f746f557070657220627261636b65742073656d6966696e616c3a20397a2076732053544d4e557070657220627261636b65742073656d6966696e616c20313a20424453204573706f7274207673205669727475732e70726f",
  "immutableReferences": {},
  "source": "pragma solidity >=0.5.0 <0.7.0;\r\n\r\ncontract Bet {\r\n    \r\n    // Events\r\n    event NoWinners(uint noWinners);                // No one answered correctly\r\n    \r\n    event AtLeastOneWinner(uint numberOfWinners);   // At least someone answer correctly\r\n    \r\n    event AnswerIsCorrect(string correctAnswer);    //  Answer is correct\r\n    \r\n    event AnswerIsNotCorrect(string incorrectAnswer); // Answer is not correct\r\n    \r\n    event PlayerAnswered(address player);           // Address of the player who answered\r\n    \r\n    event AnnounceNextTournament(string nextTournament); // Next tournament is announced\r\n    \r\n    event NoMoreTournaments(string noMore);         // No more tournaments\r\n    \r\n    \r\n    // Tournament struct to hold data for each tournament\r\n    struct Tournament {\r\n        uint maxPlayers;                            // Max players for this tournament\r\n        uint minBet;                                // Minimum bet for this tournament\r\n        uint bank;                                  // Total prizes\r\n        string name;                                // Tournament name\r\n        string correctResult;                       // Winning result  \r\n        bool done;                                  // If tournament is finished\r\n        string a;                                   // Answer A\r\n        string b;                                   // Answer B\r\n        address payable[] winners;                  // Store winners for each tournament\r\n        address payable[] players;                  // Store winners for each tournament\r\n        mapping(address => string) playersChoice;   // Store choices based on players address\r\n        mapping(address => bool) participants;      // Addresses of the participants\r\n    }\r\n    \r\n    \r\n    Tournament[] public tournaments;                // Store all tournaments\r\n    \r\n    \r\n    uint private currentTournamentIndex = 0;        // Keep track of the tournament number\r\n    \r\n    // Create the contract \r\n    constructor() public {\r\n\r\n        // Create predifined tournaments with outcomes\r\n        createTournament(5,\"Upper bracket semifinal: Isurus vs Loto\",2,\"Isurus\",\"Isurus\",\"Loto\");\r\n        createTournament(5,\"Lower bracket final: STMN vs Loto\",2,\"STMN\", \"STMN\",\"Loto\");\r\n        createTournament(5,\"Upper bracket semifinal: 9z vs STMN\",2,\"9z\", \"9z\",\"STMN\");\r\n        createTournament(5,\"Upper bracket final: 9z vs Isurus\",2,\"9z\", \"Isurus\",\"9z\");\r\n        createTournament(5,\"Lower Round 1: PACT vs Turw Zgorzelec\",2,\"PACT\",\"PACT\",\"Turw Zgorzelec\");\r\n        createTournament(5,\"Upper bracket semifinal 1: BDS Esport vs Virtus.pro\",2,\"BDS Esport\",\"BDS Esport\",\"Virtus.pro\");    \r\n    }\r\n\r\n    // Return total number of tournaments\r\n    function getTournamentsCount() public view returns(uint){\r\n        return tournaments.length;\r\n    }\r\n\r\n    // Return current active tournament index\r\n    function getCurrentTournamentIndex() public view returns(uint){\r\n        return currentTournamentIndex;\r\n    }\r\n\r\n    // Return a tournament by index. We should load tournaments one by one.\r\n     function getCurrentTournament(uint index) public view returns(uint _minBet, string memory _name, uint max_players, string memory _answer, string memory a, string memory b, bool status){\r\n        \r\n         return(tournaments[index].minBet,tournaments[index].name,tournaments[index].maxPlayers,tournaments[index].correctResult,tournaments[index].a,tournaments[index].b, tournaments[index].done);\r\n     }\r\n\r\n    // Get an array of winners\r\n    function getWinners() public view returns(address payable[] memory){\r\n        return tournaments[currentTournamentIndex].winners;\r\n    }\r\n\r\n    // is the last tournament\r\n    function getTournamentsLeft() public view returns(bool){\r\n        return tournaments.length - currentTournamentIndex  == 1;\r\n    }\r\n    \r\n    /*  Create a tournament:\r\n     *  - name \r\n     *  - minimum bet\r\n     *  - max_players\r\n     *  - answer\r\n     */ \r\n    function createTournament(uint _minBet, string memory _name, uint _max_players, string memory _answer, string memory _a, string memory _b) private {\r\n        \r\n        tournaments.push();                                     // Push empty tournament to the array\r\n\t    uint256 newIndex = tournaments.length - 1;               // Get new index\r\n\t    tournaments[newIndex].minBet = _minBet;\r\n        tournaments[newIndex].name = _name;\r\n        tournaments[newIndex].correctResult = _answer;\r\n        tournaments[newIndex].maxPlayers = _max_players;\r\n        tournaments[newIndex].a = _a;\r\n        tournaments[newIndex].b = _b;\r\n        \r\n    }\r\n    \r\n    // Winners get it all\r\n    function concludeTournament() public {\r\n        require(!tournaments[currentTournamentIndex].done,'Tournament is already has been concluded');\r\n        require(tournaments[currentTournamentIndex].maxPlayers == tournaments[currentTournamentIndex].players.length, 'Still playing');\r\n        \r\n        // [X] Case 1 there are some winners split bank among winners\r\n        if(tournaments[currentTournamentIndex].winners.length > 0) {\r\n            \r\n            emit AtLeastOneWinner(tournaments[currentTournamentIndex].winners.length);                  // Someone won\r\n            \r\n            uint sendToEachWinner = tournaments[currentTournamentIndex].bank / tournaments[currentTournamentIndex].winners.length;\r\n            \r\n            for(uint i=0; i < tournaments[currentTournamentIndex].winners.length;i++) {\r\n                tournaments[currentTournamentIndex].winners[i].transfer(sendToEachWinner);\r\n            }\r\n        }\r\n        \r\n        // [X] Case 2 there are no winners\r\n        else{\r\n            \r\n            emit NoWinners(currentTournamentIndex);                                                                             // Announce that no one won\r\n            \r\n            uint splitBank = tournaments[currentTournamentIndex].bank / tournaments[currentTournamentIndex].players.length;     // split the bank\r\n            \r\n            for(uint i = 0; i < tournaments[currentTournamentIndex].players.length; i++){\r\n                 tournaments[currentTournamentIndex].players[i].transfer(splitBank);                                            // send back the minbet\r\n            }\r\n        }\r\n        \r\n        \r\n        // Set the tournament as done\r\n        tournaments[currentTournamentIndex].done = true;\r\n\r\n        // Go to the next tournament in the array of tournaments\r\n        currentTournamentIndex += 1;\r\n        \r\n        \r\n        if (currentTournamentIndex == 5) {\r\n            emit NoMoreTournaments(\"This was the last tournament, Thank you for participating. Check back later\");\r\n        } else{\r\n            emit AnnounceNextTournament(\"Get ready for a new tournament\");\r\n        }\r\n        \r\n    }\r\n    \r\n    // Compare hashes of strings\r\n    function compareStringsbyBytes(string memory s1, string memory s2) private pure returns(bool){\r\n        return keccak256(abi.encodePacked(s1)) == keccak256(abi.encodePacked(s2));\r\n    }\r\n    \r\n    // Player is participating in the tourney\r\n    function participateInTourney(string memory _choice) payable public {\r\n        require(msg.value == tournaments[currentTournamentIndex].minBet, 'The minimum bet is bigger than that');\r\n        require(!tournaments[currentTournamentIndex].participants[msg.sender], 'You are already participated');\r\n        \r\n        tournaments[currentTournamentIndex].playersChoice[msg.sender] = _choice;      // Answer selected by this player \r\n        tournaments[currentTournamentIndex].bank += msg.value;                        // Add value to the bank\r\n        tournaments[currentTournamentIndex].participants[msg.sender] = true;          // Add this player as a participant\r\n        tournaments[currentTournamentIndex].players.push(msg.sender);                 // add to players array for counting\r\n        \r\n        // [X] Find out if the Answer is correct\r\n        if(compareStringsbyBytes(_choice,tournaments[currentTournamentIndex].correctResult)){\r\n            emit PlayerAnswered(msg.sender);\r\n            emit AnswerIsCorrect(\"That is correct\"); // Announce correct answer\r\n            tournaments[currentTournamentIndex].winners.push(msg.sender);            // Add participant as a winner\r\n        } \r\n        // [X] Answer is incorrect  \r\n        else {\r\n            emit PlayerAnswered(msg.sender);                                        // Announce who answered\r\n            emit AnswerIsNotCorrect(\"Incorect answer is given\");                    // Announce that the answer is incorrect\r\n        }\r\n        \r\n        // If the current player is the last player allowed\r\n        if(tournaments[currentTournamentIndex].players.length == tournaments[currentTournamentIndex].maxPlayers){\r\n            concludeTournament();\r\n        }\r\n           \r\n    }\r\n}",
  "sourcePath": "C:/Users/silkina/Documents/GitHub/Blockchain_3800_Final_Project/contract/contracts/Bet.sol",
  "compiler": {
    "name": "solc",
    "version": "0.6.6+commit.6c089d02.Emscripten.clang"
  },
  "schemaVersion": "3.3.1",
  "updatedAt": "2020-12-07T20:48:01.244Z",
  "networkType": "ethereum",
  "devdoc": {
    "methods": {}
  },
  "userdoc": {
    "methods": {}
  }
}