{
  "contractName": "Bet",
  "abi": [
    {
      "inputs": [
        {
          "internalType": "uint256",
          "name": "_minBet",
          "type": "uint256"
        },
        {
          "internalType": "string",
          "name": "_name",
          "type": "string"
        },
        {
          "internalType": "uint256",
          "name": "max_players",
          "type": "uint256"
        },
        {
          "internalType": "string",
          "name": "_answer",
          "type": "string"
        }
      ],
      "payable": false,
      "stateMutability": "nonpayable",
      "type": "constructor"
    },
    {
      "anonymous": false,
      "inputs": [
        {
          "indexed": false,
          "internalType": "uint256",
          "name": "minBet",
          "type": "uint256"
        },
        {
          "indexed": false,
          "internalType": "bytes32",
          "name": "name",
          "type": "bytes32"
        },
        {
          "indexed": false,
          "internalType": "uint256",
          "name": "maxPlayers",
          "type": "uint256"
        },
        {
          "indexed": false,
          "internalType": "bool",
          "name": "done",
          "type": "bool"
        }
      ],
      "name": "nextTournament",
      "type": "event"
    },
    {
      "constant": false,
      "inputs": [],
      "name": "concludeTournament",
      "outputs": [],
      "payable": false,
      "stateMutability": "nonpayable",
      "type": "function"
    },
    {
      "constant": false,
      "inputs": [
        {
          "internalType": "string",
          "name": "_choice",
          "type": "string"
        }
      ],
      "name": "participateInTourney",
      "outputs": [],
      "payable": true,
      "stateMutability": "payable",
      "type": "function"
    }
  ],
  "bytecode": "0x608060405260006001553480156200001657600080fd5b5060405162000ef738038062000ef7833981810160405260808110156200003c57600080fd5b8101908080519060200190929190805160405193929190846401000000008211156200006757600080fd5b838201915060208201858111156200007e57600080fd5b82518660018202830111640100000000821117156200009c57600080fd5b8083526020830192505050908051906020019080838360005b83811015620000d2578082015181840152602081019050620000b5565b50505050905090810190601f168015620001005780820380516001836020036101000a031916815260200191505b5060405260200180519060200190929190805160405193929190846401000000008211156200012e57600080fd5b838201915060208201858111156200014557600080fd5b82518660018202830111640100000000821117156200016357600080fd5b8083526020830192505050908051906020019080838360005b83811015620001995780820151818401526020810190506200017c565b50505050905090810190601f168015620001c75780820380516001836020036101000a031916815260200191505b50604052505050620001e284848484620001ec60201b60201c565b50505050620005bf565b620001f66200031f565b848160200181815250508381606001819052508281600001818152505060008160e00190151590811515815250508181608001819052506000819080600181540180825580915050906001820390600052602060002090600a02016000909192909190915060008201518160000155602082015181600101556040820151816002015560608201518160030190805190602001906200029792919062000366565b506080820151816004019080519060200190620002b692919062000366565b5060a0820151816005019080519060200190620002d5929190620003ed565b5060c0820151816008019080519060200190620002f49291906200047c565b5060e08201518160090160006101000a81548160ff0219169083151502179055505050505050505050565b604051806101000160405280600081526020016000815260200160008152602001606081526020016060815260200160608152602001606081526020016000151581525090565b828054600181600116156101000203166002900490600052602060002090601f016020900481019282601f10620003a957805160ff1916838001178555620003da565b82800160010185558215620003da579182015b82811115620003d9578251825591602001919060010190620003bc565b5b509050620003e991906200050b565b5090565b82805482825590600052602060002090810192821562000469579160200282015b82811115620004685782518260006101000a81548173ffffffffffffffffffffffffffffffffffffffff021916908373ffffffffffffffffffffffffffffffffffffffff160217905550916020019190600101906200040e565b5b50905062000478919062000533565b5090565b828054828255906000526020600020908101928215620004f8579160200282015b82811115620004f75782518260006101000a81548173ffffffffffffffffffffffffffffffffffffffff021916908373ffffffffffffffffffffffffffffffffffffffff160217905550916020019190600101906200049d565b5b50905062000507919062000579565b5090565b6200053091905b808211156200052c57600081600090555060010162000512565b5090565b90565b6200057691905b808211156200057257600081816101000a81549073ffffffffffffffffffffffffffffffffffffffff0219169055506001016200053a565b5090565b90565b620005bc91905b80821115620005b857600081816101000a81549073ffffffffffffffffffffffffffffffffffffffff02191690555060010162000580565b5090565b90565b61092880620005cf6000396000f3fe6080604052600436106100295760003560e01c806332e19eaf1461002e57806355ed13a2146100e9575b600080fd5b6100e76004803603602081101561004457600080fd5b810190808035906020019064010000000081111561006157600080fd5b82018360208201111561007357600080fd5b8035906020019184600183028401116401000000008311171561009557600080fd5b91908080601f016020809104026020016040519081016040528093929190818152602001838380828437600081840152601f19601f820116905080830192505050505050509192919290505050610100565b005b3480156100f557600080fd5b506100fe610461565b005b60006001548154811061010f57fe5b90600052602060002090600a0201600101543414610178576040517f08c379a00000000000000000000000000000000000000000000000000000000081526004018080602001828103825260238152602001806108a96023913960400191505060405180910390fd5b8060006001548154811061018857fe5b90600052602060002090600a020160070160003373ffffffffffffffffffffffffffffffffffffffff1673ffffffffffffffffffffffffffffffffffffffff16815260200190815260200160002090805190602001906101e9929190610803565b50346000600154815481106101fa57fe5b90600052602060002090600a020160020160008282540192505081905550600160006001548154811061022957fe5b90600052602060002090600a020160060160003373ffffffffffffffffffffffffffffffffffffffff1673ffffffffffffffffffffffffffffffffffffffff16815260200190815260200160002060006101000a81548160ff02191690831515021790555060006001548154811061029d57fe5b90600052602060002090600a02016005013390806001815401808255809150509060018203906000526020600020016000909192909190916101000a81548173ffffffffffffffffffffffffffffffffffffffff021916908373ffffffffffffffffffffffffffffffffffffffff160217905550506103d48160006001548154811061032557fe5b90600052602060002090600a02016004018054600181600116156101000203166002900480601f0160208091040260200160405190810160405280929190818152602001828054600181600116156101000203166002900480156103ca5780601f1061039f576101008083540402835291602001916103ca565b820191906000526020600020905b8154815290600101906020018083116103ad57829003601f168201915b5050505050610714565b1561045e576000600154815481106103e857fe5b90600052602060002090600a02016008013390806001815401808255809150509060018203906000526020600020016000909192909190916101000a81548173ffffffffffffffffffffffffffffffffffffffff021916908373ffffffffffffffffffffffffffffffffffffffff160217905550505b50565b60006001548154811061047057fe5b90600052602060002090600a020160090160009054906101000a900460ff16156104e5576040517f08c379a00000000000000000000000000000000000000000000000000000000081526004018080602001828103825260288152602001806108cc6028913960400191505060405180910390fd5b6000600154815481106104f457fe5b90600052602060002090600a02016005018054905060006001548154811061051857fe5b90600052602060002090600a0201600001541461059d576040517f08c379a000000000000000000000000000000000000000000000000000000000815260040180806020018281038252600d8152602001807f5374696c6c20706c6179696e670000000000000000000000000000000000000081525060200191505060405180910390fd5b600080600154815481106105ad57fe5b90600052602060002090600a0201600801805490506000600154815481106105d157fe5b90600052602060002090600a020160020154816105ea57fe5b04905060008090505b60006001548154811061060257fe5b90600052602060002090600a0201600801805490508110156106c75760006001548154811061062d57fe5b90600052602060002090600a0201600801818154811061064957fe5b9060005260206000200160009054906101000a900473ffffffffffffffffffffffffffffffffffffffff1673ffffffffffffffffffffffffffffffffffffffff166108fc839081150290604051600060405180830381858888f193505050501580156106b9573d6000803e3d6000fd5b5080806001019150506105f3565b5060016000600154815481106106d957fe5b90600052602060002090600a020160090160006101000a81548160ff0219169083151502179055506001806000828254019250508190555050565b6000816040516020018082805190602001908083835b6020831061074d578051825260208201915060208101905060208303925061072a565b6001836020036101000a03801982511681845116808217855250505050505090500191505060405160208183030381529060405280519060200120836040516020018082805190602001908083835b602083106107bf578051825260208201915060208101905060208303925061079c565b6001836020036101000a0380198251168184511680821785525050505050509050019150506040516020818303038152906040528051906020012014905092915050565b828054600181600116156101000203166002900490600052602060002090601f016020900481019282601f1061084457805160ff1916838001178555610872565b82800160010185558215610872579182015b82811115610871578251825591602001919060010190610856565b5b50905061087f9190610883565b5090565b6108a591905b808211156108a1576000816000905550600101610889565b5090565b9056fe546865206d696e696d756d2062657420697320626967676572207468616e2074686174546f75726e616d656e7420697320616c726561647920686173206265656e20636f6e636c75646564a265627a7a7231582045759ad3419399d9e39d744af616f1b69d01d3f5765f1a83d6a484eadd059c6564736f6c63430005100032",
  "source": "pragma solidity >=0.5.0 <0.7.0;\r\n\r\ncontract Bet {\r\n    \r\n    // Tournament struct to hold data for each tournament\r\n    struct Tournament {\r\n        uint maxPlayers;                            // Max players for this tournament\r\n        uint minBet;                                // Minimum bet for this tournament\r\n        uint bank;                                  // Total prizes\r\n        string name;                                // Tournament name\r\n        string correctResult;                       // Winning result  \r\n        address[] players;                          // Count players\r\n        mapping(address => bool) participants;      // Players who are participants\r\n        mapping(address => string) playersChoice;   // Players choice\r\n        address payable [] winners;                 // Store winners for each tournament\r\n        bool done;                                  // If tournament is finished\r\n    }\r\n    \r\n     \r\n    \r\n    Tournament[] private tournaments;                // Store all tournaments\r\n    \r\n    \r\n    uint currentTournament = 0;                     // Keep track of the tournament number\r\n    \r\n    // Create the contract with some parameters \r\n    constructor(uint _minBet, string memory _name, uint max_players, string memory _answer) public {\r\n        // Create initial tournament\r\n        createTournament(_minBet,_name, max_players, _answer);\r\n        \r\n    }\r\n    \r\n    /*  Create a tournament:\r\n     *  - name \r\n     *  - minimum bet\r\n     *  - max_players\r\n     */ \r\n    \r\n    function createTournament(uint _minBet, string memory _name, uint max_players, string memory _answer) private {\r\n        \r\n        Tournament memory newTournament; \r\n        \r\n        newTournament.minBet = _minBet;\r\n        newTournament.name = _name;\r\n        newTournament.maxPlayers = max_players;\r\n        newTournament.done = false;\r\n        newTournament.correctResult = _answer;\r\n            \r\n        tournaments.push(newTournament);\r\n    }\r\n    \r\n    event nextTournament(\r\n        uint minBet,\r\n        bytes32 name,\r\n        uint maxPlayers,\r\n        bool done\r\n    );\r\n    \r\n    // Winners get it all\r\n    function concludeTournament() public {\r\n        require(!tournaments[currentTournament].done,'Tournament is already has been concluded');\r\n        require(tournaments[currentTournament].maxPlayers == tournaments[currentTournament].players.length, 'Still playing');\r\n        \r\n        // Split bank among winners\r\n        uint sendToEachWinner = tournaments[currentTournament].bank / tournaments[currentTournament].winners.length;\r\n            \r\n        for(uint i=0; i < tournaments[currentTournament].winners.length;i++) {\r\n            tournaments[currentTournament].winners[i].transfer(sendToEachWinner);\r\n        }\r\n        \r\n        \r\n        // Set the tournament as done\r\n        tournaments[currentTournament].done = true;\r\n        \r\n        // Go to the next tournament\r\n        currentTournament += 1;\r\n    }\r\n    \r\n    // Compare hashes of strings\r\n    function compareStringsbyBytes(string memory s1, string memory s2) private pure returns(bool){\r\n        return keccak256(abi.encodePacked(s1)) == keccak256(abi.encodePacked(s2));\r\n    }\r\n    \r\n    // Player is participating in the tourney\r\n    function participateInTourney(string memory _choice) payable public{\r\n        require(msg.value == tournaments[currentTournament].minBet, 'The minimum bet is bigger than that');\r\n        tournaments[currentTournament].playersChoice[msg.sender] = _choice;      // Answer selected by this player \r\n        tournaments[currentTournament].bank += msg.value;                        // Add value to the bank\r\n        tournaments[currentTournament].participants[msg.sender] = true;         // Add this player as a participant\r\n        tournaments[currentTournament].players.push(msg.sender);                // add to players array for counting\r\n        \r\n        // Find out if the Answer is correct\r\n        if(compareStringsbyBytes(_choice,tournaments[currentTournament].correctResult)){\r\n            tournaments[currentTournament].winners.push(msg.sender);            // Add participant as a winner\r\n        }\r\n        \r\n        \r\n    }\r\n}",
  "sourcePath": "C:/Users/silkina/Documents/GitHub/Blockchain_3800_Final_Project/contract/contracts/Bet.sol",
  "compiler": {
    "name": "solc",
    "version": "0.5.16+commit.9c3226ce.Emscripten.clang"
  },
  "schemaVersion": "3.3.1",
  "updatedAt": "2020-11-11T23:25:29.461Z",
  "networkType": "ethereum",
  "devdoc": {
    "methods": {}
  },
  "userdoc": {
    "methods": {}
  }
}