{
  "contractName": "Bet",
  "abi": [
    {
      "inputs": [],
      "stateMutability": "nonpayable",
      "type": "constructor"
    },
    {
      "inputs": [
        {
          "internalType": "uint256",
          "name": "",
          "type": "uint256"
        }
      ],
      "name": "tournaments",
      "outputs": [
        {
          "internalType": "uint256",
          "name": "maxPlayers",
          "type": "uint256"
        },
        {
          "internalType": "uint256",
          "name": "minBet",
          "type": "uint256"
        },
        {
          "internalType": "uint256",
          "name": "bank",
          "type": "uint256"
        },
        {
          "internalType": "string",
          "name": "name",
          "type": "string"
        },
        {
          "internalType": "string",
          "name": "correctResult",
          "type": "string"
        },
        {
          "internalType": "bool",
          "name": "done",
          "type": "bool"
        },
        {
          "internalType": "string",
          "name": "a",
          "type": "string"
        },
        {
          "internalType": "string",
          "name": "b",
          "type": "string"
        }
      ],
      "stateMutability": "view",
      "type": "function"
    },
    {
      "inputs": [],
      "name": "getTournamentsCount",
      "outputs": [
        {
          "internalType": "uint256",
          "name": "",
          "type": "uint256"
        }
      ],
      "stateMutability": "view",
      "type": "function"
    },
    {
      "inputs": [],
      "name": "getCurrentTournamentIndex",
      "outputs": [
        {
          "internalType": "uint256",
          "name": "",
          "type": "uint256"
        }
      ],
      "stateMutability": "view",
      "type": "function"
    },
    {
      "inputs": [
        {
          "internalType": "uint256",
          "name": "index",
          "type": "uint256"
        }
      ],
      "name": "getCurrentTournament",
      "outputs": [
        {
          "internalType": "uint256",
          "name": "_minBet",
          "type": "uint256"
        },
        {
          "internalType": "string",
          "name": "_name",
          "type": "string"
        },
        {
          "internalType": "uint256",
          "name": "max_players",
          "type": "uint256"
        },
        {
          "internalType": "string",
          "name": "_answer",
          "type": "string"
        },
        {
          "internalType": "string",
          "name": "a",
          "type": "string"
        },
        {
          "internalType": "string",
          "name": "b",
          "type": "string"
        },
        {
          "internalType": "bool",
          "name": "status",
          "type": "bool"
        }
      ],
      "stateMutability": "view",
      "type": "function"
    },
    {
      "inputs": [],
      "name": "getWinners",
      "outputs": [
        {
          "internalType": "address payable[]",
          "name": "",
          "type": "address[]"
        }
      ],
      "stateMutability": "view",
      "type": "function"
    },
    {
      "inputs": [],
      "name": "getTournamentsLeft",
      "outputs": [
        {
          "internalType": "bool",
          "name": "",
          "type": "bool"
        }
      ],
      "stateMutability": "view",
      "type": "function"
    },
    {
      "inputs": [],
      "name": "concludeTournament",
      "outputs": [],
      "stateMutability": "nonpayable",
      "type": "function"
    },
    {
      "inputs": [
        {
          "internalType": "string",
          "name": "_choice",
          "type": "string"
        }
      ],
      "name": "participateInTourney",
      "outputs": [],
      "stateMutability": "payable",
      "type": "function"
    }
  ],
  "bytecode": "0x608060405260006001553480156200001657600080fd5b50620000e7600560405180606001604052806027815260200162001df46027913960026040518060400160405280600681526020017f49737572757300000000000000000000000000000000000000000000000000008152506040518060400160405280600681526020017f49737572757300000000000000000000000000000000000000000000000000008152506040518060400160405280600481526020017f4c6f746f00000000000000000000000000000000000000000000000000000000815250620004fd60201b60201c565b620001b7600560405180606001604052806021815260200162001dac6021913960026040518060400160405280600481526020017f53544d4e000000000000000000000000000000000000000000000000000000008152506040518060400160405280600481526020017f53544d4e000000000000000000000000000000000000000000000000000000008152506040518060400160405280600481526020017f4c6f746f00000000000000000000000000000000000000000000000000000000815250620004fd60201b60201c565b62000287600560405180606001604052806023815260200162001e1b6023913960026040518060400160405280600281526020017f397a0000000000000000000000000000000000000000000000000000000000008152506040518060400160405280600281526020017f397a0000000000000000000000000000000000000000000000000000000000008152506040518060400160405280600481526020017f53544d4e00000000000000000000000000000000000000000000000000000000815250620004fd60201b60201c565b62000357600560405180606001604052806021815260200162001d8b6021913960026040518060400160405280600281526020017f397a0000000000000000000000000000000000000000000000000000000000008152506040518060400160405280600681526020017f49737572757300000000000000000000000000000000000000000000000000008152506040518060400160405280600281526020017f397a000000000000000000000000000000000000000000000000000000000000815250620004fd60201b60201c565b62000427600560405180606001604052806027815260200162001dcd6027913960026040518060400160405280600481526020017f50414354000000000000000000000000000000000000000000000000000000008152506040518060400160405280600481526020017f50414354000000000000000000000000000000000000000000000000000000008152506040518060400160405280601081526020017f547572c3b377205a676f727a656c656300000000000000000000000000000000815250620004fd60201b60201c565b620004f7600560405180606001604052806033815260200162001e3e6033913960026040518060400160405280600a81526020017f424453204573706f7274000000000000000000000000000000000000000000008152506040518060400160405280600a81526020017f424453204573706f7274000000000000000000000000000000000000000000008152506040518060400160405280600a81526020017f5669727475732e70726f00000000000000000000000000000000000000000000815250620004fd60201b60201c565b62000700565b6000600181600181540180825580915050039060005260206000209050506000600160008054905003905086600082815481106200053757fe5b90600052602060002090600c02016001018190555085600082815481106200055b57fe5b90600052602060002090600c020160030190805190602001906200058192919062000651565b5083600082815481106200059157fe5b90600052602060002090600c02016004019080519060200190620005b792919062000651565b508460008281548110620005c757fe5b90600052602060002090600c0201600001819055508260008281548110620005eb57fe5b90600052602060002090600c020160060190805190602001906200061192919062000651565b5081600082815481106200062157fe5b90600052602060002090600c020160070190805190602001906200064792919062000651565b5050505050505050565b828054600181600116156101000203166002900490600052602060002090601f016020900481019282601f106200069457805160ff1916838001178555620006c5565b82800160010185558215620006c5579182015b82811115620006c4578251825591602001919060010190620006a7565b5b509050620006d49190620006d8565b5090565b620006fd91905b80821115620006f9576000816000905550600101620006df565b5090565b90565b61167b80620007106000396000f3fe60806040526004361061007b5760003560e01c80637503e1b71161004e5780637503e1b71461038e57806394385af1146105a6578063bfb22368146105d5578063df15c37e146106005761007b565b80632d5602da1461008057806332e19eaf146100ab57806355ed13a2146101665780636643f3261461017d575b600080fd5b34801561008c57600080fd5b5061009561066c565b6040518082815260200191505060405180910390f35b610164600480360360208110156100c157600080fd5b81019080803590602001906401000000008111156100de57600080fd5b8201836020820111156100f057600080fd5b8035906020019184600183028401116401000000008311171561011257600080fd5b91908080601f016020809104026020016040519081016040528093929190818152602001838380828437600081840152601f19601f820116905080830192505050505050509192919290505050610678565b005b34801561017257600080fd5b5061017b610ab1565b005b34801561018957600080fd5b506101b6600480360360208110156101a057600080fd5b8101908080359060200190929190505050610d64565b60405180888152602001806020018781526020018060200180602001806020018615151515815260200185810385528b818151815260200191508051906020019080838360005b838110156102185780820151818401526020810190506101fd565b50505050905090810190601f1680156102455780820380516001836020036101000a031916815260200191505b50858103845289818151815260200191508051906020019080838360005b8381101561027e578082015181840152602081019050610263565b50505050905090810190601f1680156102ab5780820380516001836020036101000a031916815260200191505b50858103835288818151815260200191508051906020019080838360005b838110156102e45780820151818401526020810190506102c9565b50505050905090810190601f1680156103115780820380516001836020036101000a031916815260200191505b50858103825287818151815260200191508051906020019080838360005b8381101561034a57808201518184015260208101905061032f565b50505050905090810190601f1680156103775780820380516001836020036101000a031916815260200191505b509b50505050505050505050505060405180910390f35b34801561039a57600080fd5b506103c7600480360360208110156103b157600080fd5b81019080803590602001909291905050506110db565b60405180898152602001888152602001878152602001806020018060200186151515158152602001806020018060200185810385528a818151815260200191508051906020019080838360005b8381101561042f578082015181840152602081019050610414565b50505050905090810190601f16801561045c5780820380516001836020036101000a031916815260200191505b50858103845289818151815260200191508051906020019080838360005b8381101561049557808201518184015260208101905061047a565b50505050905090810190601f1680156104c25780820380516001836020036101000a031916815260200191505b50858103835287818151815260200191508051906020019080838360005b838110156104fb5780820151818401526020810190506104e0565b50505050905090810190601f1680156105285780820380516001836020036101000a031916815260200191505b50858103825286818151815260200191508051906020019080838360005b83811015610561578082015181840152602081019050610546565b50505050905090810190601f16801561058e5780820380516001836020036101000a031916815260200191505b509c5050505050505050505050505060405180910390f35b3480156105b257600080fd5b506105bb61139d565b604051808215151515815260200191505060405180910390f35b3480156105e157600080fd5b506105ea6113b0565b6040518082815260200191505060405180910390f35b34801561060c57600080fd5b506106156113ba565b6040518080602001828103825283818151815260200191508051906020019060200280838360005b8381101561065857808201518184015260208101905061063d565b505050509050019250505060405180910390f35b60008080549050905090565b60006001548154811061068757fe5b90600052602060002090600c0201600b0160003373ffffffffffffffffffffffffffffffffffffffff1673ffffffffffffffffffffffffffffffffffffffff16815260200190815260200160002060009054906101000a900460ff1615610756576040517f08c379a000000000000000000000000000000000000000000000000000000000815260040180806020018281038252601d8152602001807f596f752063616e206f6e6c79207061727469636970617465206f6e636500000081525060200191505060405180910390fd5b60006001548154811061076557fe5b90600052602060002090600c02016001015434146107ce576040517f08c379a00000000000000000000000000000000000000000000000000000000081526004018080602001828103825260238152602001806116236023913960400191505060405180910390fd5b806000600154815481106107de57fe5b90600052602060002090600c0201600a0160003373ffffffffffffffffffffffffffffffffffffffff1673ffffffffffffffffffffffffffffffffffffffff168152602001908152602001600020908051906020019061083f929190611555565b503460006001548154811061085057fe5b90600052602060002090600c020160020160008282540192505081905550600160006001548154811061087f57fe5b90600052602060002090600c0201600b0160003373ffffffffffffffffffffffffffffffffffffffff1673ffffffffffffffffffffffffffffffffffffffff16815260200190815260200160002060006101000a81548160ff0219169083151502179055506000600154815481106108f357fe5b90600052602060002090600c0201600901339080600181540180825580915050600190039060005260206000200160009091909190916101000a81548173ffffffffffffffffffffffffffffffffffffffff021916908373ffffffffffffffffffffffffffffffffffffffff160217905550610a278160006001548154811061097857fe5b90600052602060002090600c02016004018054600181600116156101000203166002900480601f016020809104026020016040519081016040528092919081815260200182805460018160011615610100020316600290048015610a1d5780601f106109f257610100808354040283529160200191610a1d565b820191906000526020600020905b815481529060010190602001808311610a0057829003601f168201915b5050505050611466565b15610aae57600060015481548110610a3b57fe5b90600052602060002090600c0201600801339080600181540180825580915050600190039060005260206000200160009091909190916101000a81548173ffffffffffffffffffffffffffffffffffffffff021916908373ffffffffffffffffffffffffffffffffffffffff1602179055505b50565b600060015481548110610ac057fe5b90600052602060002090600c020160050160009054906101000a900460ff1615610b35576040517f08c379a00000000000000000000000000000000000000000000000000000000081526004018080602001828103825260288152602001806115fb6028913960400191505060405180910390fd5b600060015481548110610b4457fe5b90600052602060002090600c020160090180549050600060015481548110610b6857fe5b90600052602060002090600c02016000015414610bed576040517f08c379a000000000000000000000000000000000000000000000000000000000815260040180806020018281038252600d8152602001807f5374696c6c20706c6179696e670000000000000000000000000000000000000081525060200191505060405180910390fd5b60008060015481548110610bfd57fe5b90600052602060002090600c020160080180549050600060015481548110610c2157fe5b90600052602060002090600c02016002015481610c3a57fe5b04905060008090505b600060015481548110610c5257fe5b90600052602060002090600c020160080180549050811015610d1757600060015481548110610c7d57fe5b90600052602060002090600c02016008018181548110610c9957fe5b9060005260206000200160009054906101000a900473ffffffffffffffffffffffffffffffffffffffff1673ffffffffffffffffffffffffffffffffffffffff166108fc839081150290604051600060405180830381858888f19350505050158015610d09573d6000803e3d6000fd5b508080600101915050610c43565b506001600060015481548110610d2957fe5b90600052602060002090600c020160050160006101000a81548160ff0219169083151502179055506001806000828254019250508190555050565b60006060600060608060606000808881548110610d7d57fe5b90600052602060002090600c02016001015460008981548110610d9c57fe5b90600052602060002090600c020160030160008a81548110610dba57fe5b90600052602060002090600c02016000015460008b81548110610dd957fe5b90600052602060002090600c020160040160008c81548110610df757fe5b90600052602060002090600c020160060160008d81548110610e1557fe5b90600052602060002090600c020160070160008e81548110610e3357fe5b90600052602060002090600c020160050160009054906101000a900460ff16858054600181600116156101000203166002900480601f016020809104026020016040519081016040528092919081815260200182805460018160011615610100020316600290048015610ee75780601f10610ebc57610100808354040283529160200191610ee7565b820191906000526020600020905b815481529060010190602001808311610eca57829003601f168201915b50505050509550838054600181600116156101000203166002900480601f016020809104026020016040519081016040528092919081815260200182805460018160011615610100020316600290048015610f835780601f10610f5857610100808354040283529160200191610f83565b820191906000526020600020905b815481529060010190602001808311610f6657829003601f168201915b50505050509350828054600181600116156101000203166002900480601f01602080910402602001604051908101604052809291908181526020018280546001816001161561010002031660029004801561101f5780601f10610ff45761010080835404028352916020019161101f565b820191906000526020600020905b81548152906001019060200180831161100257829003601f168201915b50505050509250818054600181600116156101000203166002900480601f0160208091040260200160405190810160405280929190818152602001828054600181600116156101000203166002900480156110bb5780601f10611090576101008083540402835291602001916110bb565b820191906000526020600020905b81548152906001019060200180831161109e57829003601f168201915b505050505091509650965096509650965096509650919395979092949650565b600081815481106110e857fe5b90600052602060002090600c0201600091509050806000015490806001015490806002015490806003018054600181600116156101000203166002900480601f0160208091040260200160405190810160405280929190818152602001828054600181600116156101000203166002900480156111a65780601f1061117b576101008083540402835291602001916111a6565b820191906000526020600020905b81548152906001019060200180831161118957829003601f168201915b505050505090806004018054600181600116156101000203166002900480601f0160208091040260200160405190810160405280929190818152602001828054600181600116156101000203166002900480156112445780601f1061121957610100808354040283529160200191611244565b820191906000526020600020905b81548152906001019060200180831161122757829003601f168201915b5050505050908060050160009054906101000a900460ff1690806006018054600181600116156101000203166002900480601f0160208091040260200160405190810160405280929190818152602001828054600181600116156101000203166002900480156112f55780601f106112ca576101008083540402835291602001916112f5565b820191906000526020600020905b8154815290600101906020018083116112d857829003601f168201915b505050505090806007018054600181600116156101000203166002900480601f0160208091040260200160405190810160405280929190818152602001828054600181600116156101000203166002900480156113935780601f1061136857610100808354040283529160200191611393565b820191906000526020600020905b81548152906001019060200180831161137657829003601f168201915b5050505050905088565b6000600180546000805490500314905090565b6000600154905090565b60606000600154815481106113cb57fe5b90600052602060002090600c020160080180548060200260200160405190810160405280929190818152602001828054801561145c57602002820191906000526020600020905b8160009054906101000a900473ffffffffffffffffffffffffffffffffffffffff1673ffffffffffffffffffffffffffffffffffffffff1681526020019060010190808311611412575b5050505050905090565b6000816040516020018082805190602001908083835b6020831061149f578051825260208201915060208101905060208303925061147c565b6001836020036101000a03801982511681845116808217855250505050505090500191505060405160208183030381529060405280519060200120836040516020018082805190602001908083835b6020831061151157805182526020820191506020810190506020830392506114ee565b6001836020036101000a0380198251168184511680821785525050505050509050019150506040516020818303038152906040528051906020012014905092915050565b828054600181600116156101000203166002900490600052602060002090601f016020900481019282601f1061159657805160ff19168380011785556115c4565b828001600101855582156115c4579182015b828111156115c35782518255916020019190600101906115a8565b5b5090506115d191906115d5565b5090565b6115f791905b808211156115f35760008160009055506001016115db565b5090565b9056fe546f75726e616d656e7420697320616c726561647920686173206265656e20636f6e636c756465645468652062657420616d6f756e74206973206e6f742065786163746c79207269676874a2646970667358221220bc76e06a788b963b29c384213ed7cd9ec9bbbcf15b59f9e42a6844002fb8f9e364736f6c63430006060033557070657220627261636b65742066696e616c3a20397a207673204973757275734c6f77657220627261636b65742066696e616c3a2053544d4e207673204c6f746f4c6f77657220526f756e6420313a205041435420767320547572c3b377205a676f727a656c6563557070657220627261636b65742073656d6966696e616c3a20497375727573207673204c6f746f557070657220627261636b65742073656d6966696e616c3a20397a2076732053544d4e557070657220627261636b65742073656d6966696e616c20313a20424453204573706f7274207673205669727475732e70726f",
  "immutableReferences": {},
  "source": "pragma solidity 0.6.6; // Very important to keep this verion of the compiler\r\n\r\n// Bet contract implements a procedure of betting for a series of tournaments.\r\n// For simplicity a list of tournaments is loaded in the contract.\r\n\r\ncontract Bet {\r\n    \r\n    // Tournament struct to hold data for each tournament\r\n    struct Tournament {\r\n        uint maxPlayers;                            // Max players for this tournament\r\n        uint minBet;                                // Minimum bet for this tournament\r\n        uint bank;                                  // Total prizes\r\n        string name;                                // Tournament name\r\n        string correctResult;                       // Winning result  \r\n        bool done;                                  // If tournament is finished\r\n        string a;                                   // Answer A\r\n        string b;                                   // Answer B\r\n        address payable[] winners;                  // Store winners for each tournament\r\n        address[] players;                          // Store winners for each tournament\r\n        mapping(address => string) playersChoice;   // Store players choice wallet --> choice\r\n        mapping(address => bool) participants;      // Store the fact that a given wallet has already participated\r\n    }\r\n    \r\n    Tournament[] public tournaments;                // Store all tournaments\r\n    \r\n    \r\n    uint private currentTournamentIndex = 0;        // Keep track of the tournament number\r\n    \r\n    // Create the contract \r\n    constructor() public {\r\n\r\n        // Create predifined tournaments with outcomes\r\n        createTournament(5,\"Upper bracket semifinal: Isurus vs Loto\",2,\"Isurus\",\"Isurus\",\"Loto\");\r\n        createTournament(5,\"Lower bracket final: STMN vs Loto\",2,\"STMN\", \"STMN\",\"Loto\");\r\n        createTournament(5,\"Upper bracket semifinal: 9z vs STMN\",2,\"9z\", \"9z\",\"STMN\");\r\n        createTournament(5,\"Upper bracket final: 9z vs Isurus\",2,\"9z\", \"Isurus\",\"9z\");\r\n        createTournament(5,\"Lower Round 1: PACT vs Turów Zgorzelec\",2,\"PACT\",\"PACT\",\"Turów Zgorzelec\");\r\n        createTournament(5,\"Upper bracket semifinal 1: BDS Esport vs Virtus.pro\",2,\"BDS Esport\",\"BDS Esport\",\"Virtus.pro\");    \r\n    }\r\n\r\n    // Return total number of tournaments\r\n    function getTournamentsCount() public view returns(uint){\r\n        return tournaments.length;\r\n    }\r\n\r\n    // Return current active tournament index\r\n    function getCurrentTournamentIndex() public view returns(uint){\r\n        return currentTournamentIndex;\r\n    }\r\n\r\n    // Return a tournament by index\r\n     function getCurrentTournament(uint index) public view returns(uint _minBet, string memory _name, uint max_players, string memory _answer, string memory a, string memory b, bool status){\r\n        \r\n         return(tournaments[index].minBet,tournaments[index].name,tournaments[index].maxPlayers,tournaments[index].correctResult,tournaments[index].a,tournaments[index].b, tournaments[index].done);\r\n     }\r\n\r\n    // Get an array of winners\r\n    function getWinners() public view returns(address payable[] memory){\r\n        return tournaments[currentTournamentIndex].winners;\r\n    }\r\n\r\n    // is the last tournament\r\n    function getTournamentsLeft() public view returns(bool){\r\n        return tournaments.length - currentTournamentIndex  == 1;\r\n    }\r\n    \r\n    /*  Create a tournament:\r\n     *  - name \r\n     *  - minimum bet\r\n     *  - max_players\r\n     *  - answer\r\n     */ \r\n    function createTournament(uint _minBet, string memory _name, uint _max_players, string memory _answer, string memory _a, string memory _b) private {\r\n        \r\n        tournaments.push();                                     // Push empty tournament to the array\r\n\tuint256 newIndex = tournaments.length - 1;              // Get new index\r\n\ttournaments[newIndex].minBet = _minBet;\t\t\t// Set the minimum bet\r\n        tournaments[newIndex].name = _name;\t\t\t// Set the name of the tournament\r\n        tournaments[newIndex].correctResult = _answer;\t\t// Set correct answer\r\n        tournaments[newIndex].maxPlayers = _max_players;\t// Set max players for a given tournament\r\n        tournaments[newIndex].a = _a;\t\t\t\t// Choice A\r\n        tournaments[newIndex].b = _b;\t\t\t\t// Choice B\r\n    }\r\n    \r\n    \r\n    \r\n    function concludeTournament() public {\t\t\t\t\t\t\t\t\t\t\t// Winners get it all\r\n        require(!tournaments[currentTournamentIndex].done,'Tournament is already has been concluded');\r\n        require(tournaments[currentTournamentIndex].maxPlayers == tournaments[currentTournamentIndex].players.length, 'Still playing');\r\n        \r\n        \r\n        uint sendToEachWinner = tournaments[currentTournamentIndex].bank / tournaments[currentTournamentIndex].winners.length; // Split bank among winners\r\n            \r\n        for(uint i=0; i < tournaments[currentTournamentIndex].winners.length;i++) {\r\n            tournaments[currentTournamentIndex].winners[i].transfer(sendToEachWinner);\r\n        }\r\n        \r\n        tournaments[currentTournamentIndex].done = true;\t\t\t\t\t\t\t\t// Set the tournament as done\r\n\t\r\n        currentTournamentIndex += 1;\t\t\t\t\t\t\t\t\t\t\t// Go to the next tournament in the array of tournaments\r\n\t}\r\n    \r\n    function compareStringsbyBytes(string memory s1, string memory s2) private pure returns(bool){\t\t\t// Compare hashes of strings\r\n        return keccak256(abi.encodePacked(s1)) == keccak256(abi.encodePacked(s2));\r\n    }\r\n    \r\n   \r\n    function participateInTourney(string memory _choice) payable public{\t\t\t\t\t\t// Player is participating in the tourney\r\n    \trequire(!tournaments[currentTournamentIndex].participants[msg.sender], 'You can only participate once');\t// Not participated yet\r\n        require(msg.value == tournaments[currentTournamentIndex].minBet, 'The bet amount is not exactly right'); \t// Bet amount should be exact\r\n        tournaments[currentTournamentIndex].playersChoice[msg.sender] = _choice;                                        // Answer selected by this player \r\n        tournaments[currentTournamentIndex].bank += msg.value;                        \t\t\t\t\t// Add value to the bank\r\n        tournaments[currentTournamentIndex].participants[msg.sender] = true;         \t\t\t\t\t// Add this player as a participant\r\n        tournaments[currentTournamentIndex].players.push(msg.sender);                \t\t\t\t\t// add to players array for counting\r\n        \r\n        if(compareStringsbyBytes(_choice,tournaments[currentTournamentIndex].correctResult)){\t\t\t\t// Find out if the Answer is correct\r\n            tournaments[currentTournamentIndex].winners.push(msg.sender);            \t\t\t\t\t// Add participant as a winner\r\n        }\r\n           \r\n    }\r\n}\r\n",
  "sourcePath": "C:/Users/silkina/Documents/GitHub/Blockchain_3800_Final_Project/contract/contracts/Bet.sol",
  "compiler": {
    "name": "solc",
    "version": "0.6.6+commit.6c089d02.Emscripten.clang"
  },
  "schemaVersion": "3.3.1",
  "updatedAt": "2020-11-30T19:38:05.826Z",
  "devdoc": {
    "methods": {}
  },
  "userdoc": {
    "methods": {}
  }
}